{
  "contractName": "NodeList",
  "abi": [
    {
      "constant": true,
      "inputs": [],
      "name": "APP_ADDR_NAMESPACE",
      "outputs": [
        {
          "name": "",
          "type": "bytes32"
        }
      ],
      "payable": false,
      "stateMutability": "view",
      "type": "function"
    },
    {
      "constant": true,
      "inputs": [],
      "name": "getRecoveryVault",
      "outputs": [
        {
          "name": "",
          "type": "address"
        }
      ],
      "payable": false,
      "stateMutability": "view",
      "type": "function"
    },
    {
      "constant": false,
      "inputs": [
        {
          "name": "_ip",
          "type": "bytes16"
        }
      ],
      "name": "getMember",
      "outputs": [
        {
          "name": "addr",
          "type": "address"
        }
      ],
      "payable": false,
      "stateMutability": "nonpayable",
      "type": "function"
    },
    {
      "constant": true,
      "inputs": [],
      "name": "DELETE_MEMBER",
      "outputs": [
        {
          "name": "",
          "type": "bytes32"
        }
      ],
      "payable": false,
      "stateMutability": "view",
      "type": "function"
    },
    {
      "constant": true,
      "inputs": [],
      "name": "ADD_MEMBER",
      "outputs": [
        {
          "name": "",
          "type": "bytes32"
        }
      ],
      "payable": false,
      "stateMutability": "view",
      "type": "function"
    },
    {
      "constant": true,
      "inputs": [],
      "name": "EVMSCRIPT_REGISTRY_APP_ID",
      "outputs": [
        {
          "name": "",
          "type": "bytes32"
        }
      ],
      "payable": false,
      "stateMutability": "view",
      "type": "function"
    },
    {
      "constant": false,
      "inputs": [
        {
          "name": "_ethAddr",
          "type": "address"
        },
        {
          "name": "_ip",
          "type": "bytes16"
        }
      ],
      "name": "addMember",
      "outputs": [],
      "payable": false,
      "stateMutability": "nonpayable",
      "type": "function"
    },
    {
      "constant": true,
      "inputs": [
        {
          "name": "token",
          "type": "address"
        }
      ],
      "name": "allowRecoverability",
      "outputs": [
        {
          "name": "",
          "type": "bool"
        }
      ],
      "payable": false,
      "stateMutability": "view",
      "type": "function"
    },
    {
      "constant": true,
      "inputs": [],
      "name": "appId",
      "outputs": [
        {
          "name": "",
          "type": "bytes32"
        }
      ],
      "payable": false,
      "stateMutability": "view",
      "type": "function"
    },
    {
      "constant": true,
      "inputs": [],
      "name": "ETH",
      "outputs": [
        {
          "name": "",
          "type": "address"
        }
      ],
      "payable": false,
      "stateMutability": "view",
      "type": "function"
    },
    {
      "constant": true,
      "inputs": [],
      "name": "getInitializationBlock",
      "outputs": [
        {
          "name": "",
          "type": "uint256"
        }
      ],
      "payable": false,
      "stateMutability": "view",
      "type": "function"
    },
    {
      "constant": true,
      "inputs": [],
      "name": "EVMSCRIPT_REGISTRY_APP",
      "outputs": [
        {
          "name": "",
          "type": "bytes32"
        }
      ],
      "payable": false,
      "stateMutability": "view",
      "type": "function"
    },
    {
      "constant": false,
      "inputs": [
        {
          "name": "_token",
          "type": "address"
        }
      ],
      "name": "transferToVault",
      "outputs": [],
      "payable": false,
      "stateMutability": "nonpayable",
      "type": "function"
    },
    {
      "constant": true,
      "inputs": [
        {
          "name": "_sender",
          "type": "address"
        },
        {
          "name": "_role",
          "type": "bytes32"
        },
        {
          "name": "params",
          "type": "uint256[]"
        }
      ],
      "name": "canPerform",
      "outputs": [
        {
          "name": "",
          "type": "bool"
        }
      ],
      "payable": false,
      "stateMutability": "view",
      "type": "function"
    },
    {
      "constant": true,
      "inputs": [],
      "name": "kernel",
      "outputs": [
        {
          "name": "",
          "type": "address"
        }
      ],
      "payable": false,
      "stateMutability": "view",
      "type": "function"
    },
    {
      "constant": true,
      "inputs": [
        {
          "name": "",
          "type": "bytes16"
        }
      ],
      "name": "nodeList",
      "outputs": [
        {
          "name": "",
          "type": "address"
        }
      ],
      "payable": false,
      "stateMutability": "view",
      "type": "function"
    },
    {
      "constant": false,
      "inputs": [
        {
          "name": "_ip",
          "type": "bytes16"
        }
      ],
      "name": "deleteMember",
      "outputs": [],
      "payable": false,
      "stateMutability": "nonpayable",
      "type": "function"
    },
    {
      "constant": true,
      "inputs": [
        {
          "name": "_script",
          "type": "bytes"
        }
      ],
      "name": "getExecutor",
      "outputs": [
        {
          "name": "",
          "type": "address"
        }
      ],
      "payable": false,
      "stateMutability": "view",
      "type": "function"
    },
    {
      "anonymous": false,
      "inputs": [
        {
          "indexed": true,
          "name": "ethNodeAddress",
          "type": "address"
        },
        {
          "indexed": false,
          "name": "ipAddress",
          "type": "bytes16"
        }
      ],
      "name": "NewMember",
      "type": "event"
    },
    {
      "anonymous": false,
      "inputs": [
        {
          "indexed": true,
          "name": "ethNodeAddress",
          "type": "address"
        },
        {
          "indexed": false,
          "name": "ipAddress",
          "type": "bytes16"
        }
      ],
      "name": "MemberRemoved",
      "type": "event"
    }
  ],
  "bytecode": "0x6060604052341561000f57600080fd5b6113bd8061001e6000396000f3006060604052600436106100fc576000357c0100000000000000000000000000000000000000000000000000000000900463ffffffff168063178e60791461010157806332f0a3b514610132578063376679b0146101875780633f67399f146101fd5780635d10f2e11461022e57806360b1e0571461025f57806376c30203146102905780637e7db6e1146102e557806380afdea8146103365780638322fff2146103675780638b3dd749146103bc5780639b3fdf4c146103e55780639d4941d814610416578063a1658fad1461044f578063d4aae0c4146104ed578063dac990fc14610542578063db8c13e3146105b8578063f92a79ff146105ee575b600080fd5b341561010c57600080fd5b61011461068b565b60405180826000191660001916815260200191505060405180910390f35b341561013d57600080fd5b6101456106b2565b604051808273ffffffffffffffffffffffffffffffffffffffff1673ffffffffffffffffffffffffffffffffffffffff16815260200191505060405180910390f35b341561019257600080fd5b6101bb60048080356fffffffffffffffffffffffffffffffff19169060200190919050506107a7565b604051808273ffffffffffffffffffffffffffffffffffffffff1673ffffffffffffffffffffffffffffffffffffffff16815260200191505060405180910390f35b341561020857600080fd5b61021061080a565b60405180826000191660001916815260200191505060405180910390f35b341561023957600080fd5b610241610843565b60405180826000191660001916815260200191505060405180910390f35b341561026a57600080fd5b61027261087c565b60405180826000191660001916815260200191505060405180910390f35b341561029b57600080fd5b6102e3600480803573ffffffffffffffffffffffffffffffffffffffff169060200190919080356fffffffffffffffffffffffffffffffff19169060200190919050506108a3565b005b34156102f057600080fd5b61031c600480803573ffffffffffffffffffffffffffffffffffffffff16906020019091905050610a93565b604051808215151515815260200191505060405180910390f35b341561034157600080fd5b610349610a9e565b60405180826000191660001916815260200191505060405180910390f35b341561037257600080fd5b61037a610aa4565b604051808273ffffffffffffffffffffffffffffffffffffffff1673ffffffffffffffffffffffffffffffffffffffff16815260200191505060405180910390f35b34156103c757600080fd5b6103cf610aa9565b6040518082815260200191505060405180910390f35b34156103f057600080fd5b6103f8610ab3565b60405180826000191660001916815260200191505060405180910390f35b341561042157600080fd5b61044d600480803573ffffffffffffffffffffffffffffffffffffffff16906020019091905050610ada565b005b341561045a57600080fd5b6104d3600480803573ffffffffffffffffffffffffffffffffffffffff169060200190919080356000191690602001909190803590602001908201803590602001908080602002602001604051908101604052809392919081815260200183836020028082843782019150505050505091905050610d2d565b604051808215151515815260200191505060405180910390f35b34156104f857600080fd5b610500610f2d565b604051808273ffffffffffffffffffffffffffffffffffffffff1673ffffffffffffffffffffffffffffffffffffffff16815260200191505060405180910390f35b341561054d57600080fd5b61057660048080356fffffffffffffffffffffffffffffffff1916906020019091905050610f52565b604051808273ffffffffffffffffffffffffffffffffffffffff1673ffffffffffffffffffffffffffffffffffffffff16815260200191505060405180910390f35b34156105c357600080fd5b6105ec60048080356fffffffffffffffffffffffffffffffff1916906020019091905050610f85565b005b34156105f957600080fd5b610649600480803590602001908201803590602001908080601f0160208091040260200160405190810160405280939291908181526020018383808284378201915050505050509190505061113a565b604051808273ffffffffffffffffffffffffffffffffffffffff1673ffffffffffffffffffffffffffffffffffffffff16815260200191505060405180910390f35b7fd6f028ca0e8edb4a8c9757ca4fdccab25fa1e0317da1188108f7d2dee14902fb60010281565b6000806000809054906101000a900473ffffffffffffffffffffffffffffffffffffffff1673ffffffffffffffffffffffffffffffffffffffff16141515156106fa57600080fd5b6000809054906101000a900473ffffffffffffffffffffffffffffffffffffffff1673ffffffffffffffffffffffffffffffffffffffff166332f0a3b56000604051602001526040518163ffffffff167c0100000000000000000000000000000000000000000000000000000000028152600401602060405180830381600087803b151561078757600080fd5b6102c65a03f1151561079857600080fd5b50505060405180519050905090565b600060646000836fffffffffffffffffffffffffffffffff19166fffffffffffffffffffffffffffffffff1916815260200190815260200160002060009054906101000a900473ffffffffffffffffffffffffffffffffffffffff169050919050565b60405180807f44454c4554455f4d454d42455200000000000000000000000000000000000000815250600d019050604051809103902081565b60405180807f4144445f4d454d42455200000000000000000000000000000000000000000000815250600a019050604051809103902081565b7fddbcfd564f642ab5627cf68b9b7d374fb4f8a36e941a75d89c87998cef03bd6160010281565b60405180807f4144445f4d454d42455200000000000000000000000000000000000000000000815250600a0190506040518091039020610903338260006040518059106108ed5750595b9080825280602002602001820160405250610d2d565b151561090e57600080fd5b600073ffffffffffffffffffffffffffffffffffffffff1660646000846fffffffffffffffffffffffffffffffff19166fffffffffffffffffffffffffffffffff1916815260200190815260200160002060009054906101000a900473ffffffffffffffffffffffffffffffffffffffff1673ffffffffffffffffffffffffffffffffffffffff161415156109a257600080fd5b8260646000846fffffffffffffffffffffffffffffffff19166fffffffffffffffffffffffffffffffff1916815260200190815260200160002060006101000a81548173ffffffffffffffffffffffffffffffffffffffff021916908373ffffffffffffffffffffffffffffffffffffffff1602179055508273ffffffffffffffffffffffffffffffffffffffff167fcf239c180b228635f3af99d79b5875ec45ebcf3238eeced2123e9c713263770a8360405180826fffffffffffffffffffffffffffffffff19166fffffffffffffffffffffffffffffffff1916815260200191505060405180910390a2505050565b600060019050919050565b60015481565b600081565b6000600354905090565b7f34f01c17e9be6ddbf2c61f37b5b1fb9f1a090a975006581ad19bda1c4d38287160010281565b600080610ae683610a93565b1515610af157600080fd5b610af96106b2565b9150610b0482611241565b1515610b0f57600080fd5b600073ffffffffffffffffffffffffffffffffffffffff168373ffffffffffffffffffffffffffffffffffffffff161415610ba0578173ffffffffffffffffffffffffffffffffffffffff166108fc3073ffffffffffffffffffffffffffffffffffffffff16319081150290604051600060405180830381858888f193505050501515610b9b57600080fd5b610d28565b8273ffffffffffffffffffffffffffffffffffffffff166370a08231306000604051602001526040518263ffffffff167c0100000000000000000000000000000000000000000000000000000000028152600401808273ffffffffffffffffffffffffffffffffffffffff1673ffffffffffffffffffffffffffffffffffffffff168152602001915050602060405180830381600087803b1515610c4357600080fd5b6102c65a03f11515610c5457600080fd5b5050506040518051905090508273ffffffffffffffffffffffffffffffffffffffff1663a9059cbb83836000604051602001526040518363ffffffff167c0100000000000000000000000000000000000000000000000000000000028152600401808373ffffffffffffffffffffffffffffffffffffffff1673ffffffffffffffffffffffffffffffffffffffff16815260200182815260200192505050602060405180830381600087803b1515610d0b57600080fd5b6102c65a03f11515610d1c57600080fd5b50505060405180519050505b505050565b6000610d3761137d565b60008084511115610d5057602084510290508391508082525b60008060009054906101000a900473ffffffffffffffffffffffffffffffffffffffff1673ffffffffffffffffffffffffffffffffffffffff161480610f2257506000809054906101000a900473ffffffffffffffffffffffffffffffffffffffff1673ffffffffffffffffffffffffffffffffffffffff1663fdef9106873088866000604051602001526040518563ffffffff167c0100000000000000000000000000000000000000000000000000000000028152600401808573ffffffffffffffffffffffffffffffffffffffff1673ffffffffffffffffffffffffffffffffffffffff1681526020018473ffffffffffffffffffffffffffffffffffffffff1673ffffffffffffffffffffffffffffffffffffffff168152602001836000191660001916815260200180602001828103825283818151815260200191508051906020019080838360005b83811015610eb8578082015181840152602081019050610e9d565b50505050905090810190601f168015610ee55780820380516001836020036101000a031916815260200191505b5095505050505050602060405180830381600087803b1515610f0657600080fd5b6102c65a03f11515610f1757600080fd5b505050604051805190505b925050509392505050565b6000809054906101000a900473ffffffffffffffffffffffffffffffffffffffff1681565b60646020528060005260406000206000915054906101000a900473ffffffffffffffffffffffffffffffffffffffff1681565b60405180807f4144445f4d454d42455200000000000000000000000000000000000000000000815250600a0190506040518091039020610fe533826000604051805910610fcf5750595b9080825280602002602001820160405250610d2d565b1515610ff057600080fd5b60646000836fffffffffffffffffffffffffffffffff19166fffffffffffffffffffffffffffffffff1916815260200190815260200160002060009054906101000a900473ffffffffffffffffffffffffffffffffffffffff1673ffffffffffffffffffffffffffffffffffffffff167fd46dd39ce5af5c6bb6f305812899eabbc8270b4f8697d955018c05e260e00a088360405180826fffffffffffffffffffffffffffffffff19166fffffffffffffffffffffffffffffffff1916815260200191505060405180910390a2600060646000846fffffffffffffffffffffffffffffffff19166fffffffffffffffffffffffffffffffff1916815260200190815260200160002060006101000a81548173ffffffffffffffffffffffffffffffffffffffff021916908373ffffffffffffffffffffffffffffffffffffffff1602179055505050565b6000611144611293565b73ffffffffffffffffffffffffffffffffffffffff166304bf2a7f836000604051602001526040518263ffffffff167c01000000000000000000000000000000000000000000000000000000000281526004018080602001828103825283818151815260200191508051906020019080838360005b838110156111d45780820151818401526020810190506111b9565b50505050905090810190601f1680156112015780820380516001836020036101000a031916815260200191505b5092505050602060405180830381600087803b151561121f57600080fd5b6102c65a03f1151561123057600080fd5b505050604051805190509050919050565b600080600073ffffffffffffffffffffffffffffffffffffffff168373ffffffffffffffffffffffffffffffffffffffff161415611282576000915061128d565b823b90506000811191505b50919050565b6000806000809054906101000a900473ffffffffffffffffffffffffffffffffffffffff1673ffffffffffffffffffffffffffffffffffffffff166342c71f1d7f34f01c17e9be6ddbf2c61f37b5b1fb9f1a090a975006581ad19bda1c4d3828716001026000604051602001526040518263ffffffff167c0100000000000000000000000000000000000000000000000000000000028152600401808260001916600019168152602001915050602060405180830381600087803b151561135957600080fd5b6102c65a03f1151561136a57600080fd5b5050506040518051905090508091505090565b6020604051908101604052806000815250905600a165627a7a723058207b517179cd64e6370699c4277f92d00bd1c7abb57bc2776e65a43e0bdc25d1880029",
  "source": "pragma solidity ^0.4.18;\n\nimport \"@aragon/os/contracts/apps/AragonApp.sol\";\n\ncontract NodeList is AragonApp {\n\n  event NewMember(address indexed ethNodeAddress, bytes16 ipAddress);\n  event MemberRemoved(address indexed ethNodeAddress, bytes16 ipAddress);\n \n  bytes32 constant public ADD_MEMBER = keccak256(\"ADD_MEMBER\");\n  bytes32 constant public DELETE_MEMBER = keccak256(\"DELETE_MEMBER\");\n\n  mapping(bytes16 => address) public nodeList;\n\n  function addMember(address _ethAddr, bytes16 _ip) auth(ADD_MEMBER) external {\n    require(nodeList[_ip] == 0x0000000000000000000000000000000000000000);\n    nodeList[_ip] = _ethAddr;\n    NewMember(_ethAddr, _ip);\n  }\n\n  function deleteMember(bytes16 _ip) auth(ADD_MEMBER) external {\n    MemberRemoved(nodeList[_ip], _ip);\n    nodeList[_ip] = 0x0000000000000000000000000000000000000000;\n  }\n\n  function getMember(bytes16 _ip) public returns(address addr) {\n    addr = nodeList[_ip]; \n  }\n}\n",
  "sourcePath": "/home/sebas/githubs/althea/work/aragon/node-list/contracts/NodeList.sol",
  "compiler": {
    "name": "solc",
    "version": "0.4.18+commit.9cf6e910.Emscripten.clang"
  },
  "schemaVersion": "1.0.1",
  "updatedAt": "2018-08-20T01:02:26.156Z"
}